{
  "_format": "hh-sol-artifact-1",
  "contractName": "GoldList",
  "sourceName": "contracts/GoldList.sol",
  "abi": [
    {
      "inputs": [
        {
          "internalType": "address",
          "name": "_srgToken",
          "type": "address"
        },
        {
          "internalType": "address",
          "name": "admin",
          "type": "address"
        },
        {
          "internalType": "address",
          "name": "priceFeedAddress",
          "type": "address"
        },
        {
          "internalType": "address",
          "name": "multiSigWallet",
          "type": "address"
        },
        {
          "internalType": "address[]",
          "name": "acceptedStableCoins",
          "type": "address[]"
        }
      ],
      "stateMutability": "nonpayable",
      "type": "constructor"
    },
    {
      "anonymous": false,
      "inputs": [
        {
          "indexed": false,
          "internalType": "address",
          "name": "stableCoinAddress",
          "type": "address"
        }
      ],
      "name": "AddedStableCoin",
      "type": "event"
    },
    {
      "anonymous": false,
      "inputs": [
        {
          "indexed": false,
          "internalType": "address[]",
          "name": "addresses",
          "type": "address[]"
        },
        {
          "indexed": false,
          "internalType": "bool[]",
          "name": "status",
          "type": "bool[]"
        }
      ],
      "name": "BatchGoldListAddition",
      "type": "event"
    },
    {
      "anonymous": false,
      "inputs": [
        {
          "indexed": false,
          "internalType": "address",
          "name": "_address",
          "type": "address"
        },
        {
          "indexed": false,
          "internalType": "bool",
          "name": "status",
          "type": "bool"
        }
      ],
      "name": "GoldListAddition",
      "type": "event"
    },
    {
      "anonymous": false,
      "inputs": [],
      "name": "GoldListRevoked",
      "type": "event"
    },
    {
      "anonymous": false,
      "inputs": [
        {
          "indexed": true,
          "internalType": "address",
          "name": "previousOwner",
          "type": "address"
        },
        {
          "indexed": true,
          "internalType": "address",
          "name": "newOwner",
          "type": "address"
        }
      ],
      "name": "OwnershipTransferred",
      "type": "event"
    },
    {
      "anonymous": false,
      "inputs": [
        {
          "indexed": false,
          "internalType": "address",
          "name": "stableCoinAddress",
          "type": "address"
        }
      ],
      "name": "RemovedStableCoin",
      "type": "event"
    },
    {
      "anonymous": false,
      "inputs": [
        {
          "indexed": true,
          "internalType": "bytes32",
          "name": "role",
          "type": "bytes32"
        },
        {
          "indexed": true,
          "internalType": "bytes32",
          "name": "previousAdminRole",
          "type": "bytes32"
        },
        {
          "indexed": true,
          "internalType": "bytes32",
          "name": "newAdminRole",
          "type": "bytes32"
        }
      ],
      "name": "RoleAdminChanged",
      "type": "event"
    },
    {
      "anonymous": false,
      "inputs": [
        {
          "indexed": true,
          "internalType": "bytes32",
          "name": "role",
          "type": "bytes32"
        },
        {
          "indexed": true,
          "internalType": "address",
          "name": "account",
          "type": "address"
        },
        {
          "indexed": true,
          "internalType": "address",
          "name": "sender",
          "type": "address"
        }
      ],
      "name": "RoleGranted",
      "type": "event"
    },
    {
      "anonymous": false,
      "inputs": [
        {
          "indexed": true,
          "internalType": "bytes32",
          "name": "role",
          "type": "bytes32"
        },
        {
          "indexed": true,
          "internalType": "address",
          "name": "account",
          "type": "address"
        },
        {
          "indexed": true,
          "internalType": "address",
          "name": "sender",
          "type": "address"
        }
      ],
      "name": "RoleRevoked",
      "type": "event"
    },
    {
      "anonymous": false,
      "inputs": [
        {
          "indexed": false,
          "internalType": "uint256",
          "name": "amount",
          "type": "uint256"
        }
      ],
      "name": "TokensClaimed",
      "type": "event"
    },
    {
      "inputs": [],
      "name": "ADMIN_ROLE",
      "outputs": [
        {
          "internalType": "bytes32",
          "name": "",
          "type": "bytes32"
        }
      ],
      "stateMutability": "view",
      "type": "function"
    },
    {
      "inputs": [],
      "name": "DEFAULT_ADMIN_ROLE",
      "outputs": [
        {
          "internalType": "bytes32",
          "name": "",
          "type": "bytes32"
        }
      ],
      "stateMutability": "view",
      "type": "function"
    },
    {
      "inputs": [
        {
          "internalType": "address",
          "name": "erc20",
          "type": "address"
        }
      ],
      "name": "addAcceptedStableCoin",
      "outputs": [],
      "stateMutability": "nonpayable",
      "type": "function"
    },
    {
      "inputs": [
        {
          "internalType": "address",
          "name": "newAdmin",
          "type": "address"
        }
      ],
      "name": "addAdmin",
      "outputs": [],
      "stateMutability": "nonpayable",
      "type": "function"
    },
    {
      "inputs": [
        {
          "internalType": "address[]",
          "name": "goldAddresses",
          "type": "address[]"
        },
        {
          "internalType": "bool[]",
          "name": "status",
          "type": "bool[]"
        }
      ],
      "name": "addBatchGoldList",
      "outputs": [],
      "stateMutability": "nonpayable",
      "type": "function"
    },
    {
      "inputs": [
        {
          "internalType": "address",
          "name": "newAddress",
          "type": "address"
        },
        {
          "internalType": "bool",
          "name": "status",
          "type": "bool"
        }
      ],
      "name": "addGoldList",
      "outputs": [],
      "stateMutability": "nonpayable",
      "type": "function"
    },
    {
      "inputs": [],
      "name": "claimTokensWithNative",
      "outputs": [],
      "stateMutability": "payable",
      "type": "function"
    },
    {
      "inputs": [
        {
          "internalType": "address",
          "name": "erc20",
          "type": "address"
        },
        {
          "internalType": "uint256",
          "name": "amount",
          "type": "uint256"
        }
      ],
      "name": "claimTokensWithStable",
      "outputs": [],
      "stateMutability": "nonpayable",
      "type": "function"
    },
    {
      "inputs": [
        {
          "internalType": "uint256",
          "name": "nativeAmount",
          "type": "uint256"
        }
      ],
      "name": "getAmountOfTokens",
      "outputs": [
        {
          "internalType": "uint256",
          "name": "",
          "type": "uint256"
        }
      ],
      "stateMutability": "view",
      "type": "function"
    },
    {
      "inputs": [
        {
          "internalType": "bytes32",
          "name": "role",
          "type": "bytes32"
        }
      ],
      "name": "getRoleAdmin",
      "outputs": [
        {
          "internalType": "bytes32",
          "name": "",
          "type": "bytes32"
        }
      ],
      "stateMutability": "view",
      "type": "function"
    },
    {
      "inputs": [
        {
          "internalType": "address",
          "name": "",
          "type": "address"
        }
      ],
      "name": "goldList",
      "outputs": [
        {
          "internalType": "bool",
          "name": "",
          "type": "bool"
        }
      ],
      "stateMutability": "view",
      "type": "function"
    },
    {
      "inputs": [
        {
          "internalType": "uint256",
          "name": "",
          "type": "uint256"
        }
      ],
      "name": "goldMembers",
      "outputs": [
        {
          "internalType": "address",
          "name": "",
          "type": "address"
        }
      ],
      "stateMutability": "view",
      "type": "function"
    },
    {
      "inputs": [],
      "name": "goldNumber",
      "outputs": [
        {
          "internalType": "uint256",
          "name": "_value",
          "type": "uint256"
        }
      ],
      "stateMutability": "view",
      "type": "function"
    },
    {
      "inputs": [
        {
          "internalType": "bytes32",
          "name": "role",
          "type": "bytes32"
        },
        {
          "internalType": "address",
          "name": "account",
          "type": "address"
        }
      ],
      "name": "grantRole",
      "outputs": [],
      "stateMutability": "nonpayable",
      "type": "function"
    },
    {
      "inputs": [
        {
          "internalType": "bytes32",
          "name": "role",
          "type": "bytes32"
        },
        {
          "internalType": "address",
          "name": "account",
          "type": "address"
        }
      ],
      "name": "hasRole",
      "outputs": [
        {
          "internalType": "bool",
          "name": "",
          "type": "bool"
        }
      ],
      "stateMutability": "view",
      "type": "function"
    },
    {
      "inputs": [],
      "name": "owner",
      "outputs": [
        {
          "internalType": "address",
          "name": "",
          "type": "address"
        }
      ],
      "stateMutability": "view",
      "type": "function"
    },
    {
      "inputs": [
        {
          "internalType": "address",
          "name": "erc20",
          "type": "address"
        }
      ],
      "name": "removeAcceptedStableCoin",
      "outputs": [],
      "stateMutability": "nonpayable",
      "type": "function"
    },
    {
      "inputs": [],
      "name": "renounceOwnership",
      "outputs": [],
      "stateMutability": "nonpayable",
      "type": "function"
    },
    {
      "inputs": [
        {
          "internalType": "bytes32",
          "name": "role",
          "type": "bytes32"
        },
        {
          "internalType": "address",
          "name": "account",
          "type": "address"
        }
      ],
      "name": "renounceRole",
      "outputs": [],
      "stateMutability": "nonpayable",
      "type": "function"
    },
    {
      "inputs": [
        {
          "internalType": "address",
          "name": "revokedAdmin",
          "type": "address"
        }
      ],
      "name": "revokeAdmin",
      "outputs": [],
      "stateMutability": "nonpayable",
      "type": "function"
    },
    {
      "inputs": [],
      "name": "revokeGoldList",
      "outputs": [],
      "stateMutability": "nonpayable",
      "type": "function"
    },
    {
      "inputs": [
        {
          "internalType": "bytes32",
          "name": "role",
          "type": "bytes32"
        },
        {
          "internalType": "address",
          "name": "account",
          "type": "address"
        }
      ],
      "name": "revokeRole",
      "outputs": [],
      "stateMutability": "nonpayable",
      "type": "function"
    },
    {
      "inputs": [],
      "name": "srgToken",
      "outputs": [
        {
          "internalType": "address",
          "name": "",
          "type": "address"
        }
      ],
      "stateMutability": "view",
      "type": "function"
    },
    {
      "inputs": [
        {
          "internalType": "address",
          "name": "",
          "type": "address"
        }
      ],
      "name": "stableTokensAccepted",
      "outputs": [
        {
          "internalType": "bool",
          "name": "",
          "type": "bool"
        }
      ],
      "stateMutability": "view",
      "type": "function"
    },
    {
      "inputs": [
        {
          "internalType": "bytes4",
          "name": "interfaceId",
          "type": "bytes4"
        }
      ],
      "name": "supportsInterface",
      "outputs": [
        {
          "internalType": "bool",
          "name": "",
          "type": "bool"
        }
      ],
      "stateMutability": "view",
      "type": "function"
    },
    {
      "inputs": [
        {
          "internalType": "address",
          "name": "newOwner",
          "type": "address"
        }
      ],
      "name": "transferOwnership",
      "outputs": [],
      "stateMutability": "nonpayable",
      "type": "function"
    },
    {
      "inputs": [],
      "name": "withdrawMatic",
      "outputs": [],
      "stateMutability": "payable",
      "type": "function"
    },
    {
      "inputs": [
        {
          "internalType": "contract IERC20",
          "name": "token",
          "type": "address"
        }
      ],
      "name": "withdrawTokens",
      "outputs": [],
      "stateMutability": "nonpayable",
      "type": "function"
    }
  ],
  "bytecode": "0x60a06040523480156200001157600080fd5b5060405162003ffd38038062003ffd8339818101604052810190620000379190620007f9565b600062000049620002aa60201b60201c565b9050806000806101000a81548173ffffffffffffffffffffffffffffffffffffffff021916908373ffffffffffffffffffffffffffffffffffffffff1602179055508073ffffffffffffffffffffffffffffffffffffffff16600073ffffffffffffffffffffffffffffffffffffffff167f8be0079c531659141344cd1fd0a4f28419497f9722a3daafe3b4186f6b6457e060405160405180910390a35060016002819055508473ffffffffffffffffffffffffffffffffffffffff1660808173ffffffffffffffffffffffffffffffffffffffff1681525050620001557fa49807205ce4d355092ef5a8a18f56e8913cf4a201fbe287825b095693c2177585620002b260201b60201c565b82600360006101000a81548173ffffffffffffffffffffffffffffffffffffffff021916908373ffffffffffffffffffffffffffffffffffffffff160217905550620001a782620002c860201b60201c565b60005b81518160ff1610156200029e57600160066000848460ff1681518110620001d657620001d5620008a0565b5b602002602001015173ffffffffffffffffffffffffffffffffffffffff1673ffffffffffffffffffffffffffffffffffffffff16815260200190815260200160002060006101000a81548160ff0219169083151502179055507fa04b8235ba8d4ccc1593bf34f5766d7ead1f24458256decebed920957ed03ec8828260ff1681518110620002695762000268620008a0565b5b6020026020010151604051620002809190620008e0565b60405180910390a18080620002959062000939565b915050620001aa565b50505050505062000a82565b600033905090565b620002c482826200048660201b60201c565b5050565b620002d8620002aa60201b60201c565b73ffffffffffffffffffffffffffffffffffffffff16620002fe6200057760201b60201c565b73ffffffffffffffffffffffffffffffffffffffff161462000357576040517f08c379a00000000000000000000000000000000000000000000000000000000081526004016200034e90620009c8565b60405180910390fd5b600073ffffffffffffffffffffffffffffffffffffffff168173ffffffffffffffffffffffffffffffffffffffff1603620003c9576040517f08c379a0000000000000000000000000000000000000000000000000000000008152600401620003c09062000a60565b60405180910390fd5b8073ffffffffffffffffffffffffffffffffffffffff1660008054906101000a900473ffffffffffffffffffffffffffffffffffffffff1673ffffffffffffffffffffffffffffffffffffffff167f8be0079c531659141344cd1fd0a4f28419497f9722a3daafe3b4186f6b6457e060405160405180910390a3806000806101000a81548173ffffffffffffffffffffffffffffffffffffffff021916908373ffffffffffffffffffffffffffffffffffffffff16021790555050565b620004988282620005a060201b60201c565b6200057357600180600084815260200190815260200160002060000160008373ffffffffffffffffffffffffffffffffffffffff1673ffffffffffffffffffffffffffffffffffffffff16815260200190815260200160002060006101000a81548160ff02191690831515021790555062000518620002aa60201b60201c565b73ffffffffffffffffffffffffffffffffffffffff168173ffffffffffffffffffffffffffffffffffffffff16837f2f8788117e7eff1d82e926ec794901d17c78024a50270940304540a733656f0d60405160405180910390a45b5050565b60008060009054906101000a900473ffffffffffffffffffffffffffffffffffffffff16905090565b60006001600084815260200190815260200160002060000160008373ffffffffffffffffffffffffffffffffffffffff1673ffffffffffffffffffffffffffffffffffffffff16815260200190815260200160002060009054906101000a900460ff16905092915050565b6000604051905090565b600080fd5b600080fd5b600073ffffffffffffffffffffffffffffffffffffffff82169050919050565b60006200064c826200061f565b9050919050565b6200065e816200063f565b81146200066a57600080fd5b50565b6000815190506200067e8162000653565b92915050565b600080fd5b6000601f19601f8301169050919050565b7f4e487b7100000000000000000000000000000000000000000000000000000000600052604160045260246000fd5b620006d48262000689565b810181811067ffffffffffffffff82111715620006f657620006f56200069a565b5b80604052505050565b60006200070b6200060b565b9050620007198282620006c9565b919050565b600067ffffffffffffffff8211156200073c576200073b6200069a565b5b602082029050602081019050919050565b600080fd5b60006200076962000763846200071e565b620006ff565b905080838252602082019050602084028301858111156200078f576200078e6200074d565b5b835b81811015620007bc5780620007a788826200066d565b84526020840193505060208101905062000791565b5050509392505050565b600082601f830112620007de57620007dd62000684565b5b8151620007f084826020860162000752565b91505092915050565b600080600080600060a0868803121562000818576200081762000615565b5b600062000828888289016200066d565b95505060206200083b888289016200066d565b94505060406200084e888289016200066d565b935050606062000861888289016200066d565b925050608086015167ffffffffffffffff8111156200088557620008846200061a565b5b6200089388828901620007c6565b9150509295509295909350565b7f4e487b7100000000000000000000000000000000000000000000000000000000600052603260045260246000fd5b620008da816200063f565b82525050565b6000602082019050620008f76000830184620008cf565b92915050565b7f4e487b7100000000000000000000000000000000000000000000000000000000600052601160045260246000fd5b600060ff82169050919050565b600062000946826200092c565b915060ff82036200095c576200095b620008fd565b5b600182019050919050565b600082825260208201905092915050565b7f4f776e61626c653a2063616c6c6572206973206e6f7420746865206f776e6572600082015250565b6000620009b060208362000967565b9150620009bd8262000978565b602082019050919050565b60006020820190508181036000830152620009e381620009a1565b9050919050565b7f4f776e61626c653a206e6577206f776e657220697320746865207a65726f206160008201527f6464726573730000000000000000000000000000000000000000000000000000602082015250565b600062000a4860268362000967565b915062000a5582620009ea565b604082019050919050565b6000602082019050818103600083015262000a7b8162000a39565b9050919050565b60805161355162000aac6000396000818161086b015281816110be01526113b901526135516000f3fe6080604052600436106101b75760003560e01c8063715018a6116100ec5780638da5cb5b1161008a5780639f27c9dd116100645780639f27c9dd146105c6578063a217fddf146105ef578063d547741f1461061a578063f2fde38b14610643576101b7565b80638da5cb5b146105355780638f8c99a11461056057806391d1485414610589576101b7565b80637da84f40116100c65780637da84f40146104ac5780638067412e146104d7578063810074c614610514578063841a76c21461051e576101b7565b8063715018a61461043f57806375b238fc1461045657806378add47214610481576101b7565b806336568abe1161015957806340ed2f7d1161013357806340ed2f7d146103ba57806349df728c146103e357806366ed38b21461040c5780637048027514610416576101b7565b806336568abe1461032b5780633c1edfe1146103545780633cafbb6d14610391576101b7565b8063269024ed11610195578063269024ed1461025f5780632d3456701461029c5780632f2ff15d146102c55780632f45d4de146102ee576101b7565b806301ffc9a7146101bc57806309352040146101f9578063248a9ca314610222575b600080fd5b3480156101c857600080fd5b506101e360048036038101906101de9190612191565b61066c565b6040516101f091906121d9565b60405180910390f35b34801561020557600080fd5b50610220600480360381019061021b9190612288565b6106e6565b005b34801561022e57600080fd5b50610249600480360381019061024491906122fe565b610953565b604051610256919061233a565b60405180910390f35b34801561026b57600080fd5b5061028660048036038101906102819190612355565b610973565b60405161029391906121d9565b60405180910390f35b3480156102a857600080fd5b506102c360048036038101906102be9190612355565b610993565b005b3480156102d157600080fd5b506102ec60048036038101906102e79190612382565b610a3c565b005b3480156102fa57600080fd5b50610315600480360381019061031091906123c2565b610aa2565b60405161032291906123fe565b60405180910390f35b34801561033757600080fd5b50610352600480360381019061034d9190612382565b610b85565b005b34801561036057600080fd5b5061037b600480360381019061037691906123c2565b610c08565b6040516103889190612428565b60405180910390f35b34801561039d57600080fd5b506103b860048036038101906103b39190612355565b610c47565b005b3480156103c657600080fd5b506103e160048036038101906103dc919061268b565b610d55565b005b3480156103ef57600080fd5b5061040a60048036038101906104059190612741565b610ea7565b005b610414610fd1565b005b34801561042257600080fd5b5061043d60048036038101906104389190612355565b6111a4565b005b34801561044b57600080fd5b5061045461124d565b005b34801561046257600080fd5b5061046b611387565b604051610478919061233a565b60405180910390f35b34801561048d57600080fd5b506104966113ab565b6040516104a391906123fe565b60405180910390f35b3480156104b857600080fd5b506104c16113b7565b6040516104ce9190612428565b60405180910390f35b3480156104e357600080fd5b506104fe60048036038101906104f99190612355565b6113db565b60405161050b91906121d9565b60405180910390f35b61051c6113fb565b005b34801561052a57600080fd5b50610533611526565b005b34801561054157600080fd5b5061054a61169f565b6040516105579190612428565b60405180910390f35b34801561056c57600080fd5b506105876004803603810190610582919061276e565b6116c8565b005b34801561059557600080fd5b506105b060048036038101906105ab9190612382565b61183e565b6040516105bd91906121d9565b60405180910390f35b3480156105d257600080fd5b506105ed60048036038101906105e89190612355565b6118a9565b005b3480156105fb57600080fd5b506106046119b7565b604051610611919061233a565b60405180910390f35b34801561062657600080fd5b50610641600480360381019061063c9190612382565b6119be565b005b34801561064f57600080fd5b5061066a60048036038101906106659190612355565b611a24565b005b60007f7965db0b000000000000000000000000000000000000000000000000000000007bffffffffffffffffffffffffffffffffffffffffffffffffffffffff1916827bffffffffffffffffffffffffffffffffffffffffffffffffffffffff191614806106df57506106de82611bcc565b5b9050919050565b600280540361072a576040517f08c379a00000000000000000000000000000000000000000000000000000000081526004016107219061280b565b60405180910390fd5b60028081905550600660008373ffffffffffffffffffffffffffffffffffffffff1673ffffffffffffffffffffffffffffffffffffffff16815260200190815260200160002060009054906101000a900460ff166107bd576040517f08c379a00000000000000000000000000000000000000000000000000000000081526004016107b490612877565b60405180910390fd5b6000600c6064836107ce91906128c6565b6107d89190612937565b90508273ffffffffffffffffffffffffffffffffffffffff166323b872dd6107fe611c36565b61080661169f565b856040518463ffffffff1660e01b815260040161082593929190612968565b6020604051808303816000875af1158015610844573d6000803e3d6000fd5b505050506040513d601f19601f8201168201806040525081019061086891906129b4565b507f000000000000000000000000000000000000000000000000000000000000000073ffffffffffffffffffffffffffffffffffffffff1663a9059cbb6108ad611c36565b836040518363ffffffff1660e01b81526004016108cb9291906129e1565b6020604051808303816000875af11580156108ea573d6000803e3d6000fd5b505050506040513d601f19601f8201168201806040525081019061090e91906129b4565b507fcff788b65ecc4ee1e06954505390b4d87e536462f29c25f160ab35cdb6ef6aea8160405161093e91906123fe565b60405180910390a15060016002819055505050565b600060016000838152602001908152602001600020600101549050919050565b60066020528060005260406000206000915054906101000a900460ff1681565b61099b611c36565b73ffffffffffffffffffffffffffffffffffffffff166109b961169f565b73ffffffffffffffffffffffffffffffffffffffff1614610a0f576040517f08c379a0000000000000000000000000000000000000000000000000000000008152600401610a0690612a56565b60405180910390fd5b610a397fa49807205ce4d355092ef5a8a18f56e8913cf4a201fbe287825b095693c21775826119be565b50565b610a55610a4883610953565b610a50611c36565b61183e565b610a94576040517f08c379a0000000000000000000000000000000000000000000000000000000008152600401610a8b90612ae8565b60405180910390fd5b610a9e8282611c3e565b5050565b600080600360009054906101000a900473ffffffffffffffffffffffffffffffffffffffff1673ffffffffffffffffffffffffffffffffffffffff1663feaf968c6040518163ffffffff1660e01b815260040160a060405180830381865afa158015610b12573d6000803e3d6000fd5b505050506040513d601f19601f82011682018060405250810190610b369190612b95565b50505091505060006402540be40082610b4f91906128c6565b905060006701aa535d3d0c000090506000818387610b6d91906128c6565b610b779190612937565b905080945050505050919050565b610b8d611c36565b73ffffffffffffffffffffffffffffffffffffffff168173ffffffffffffffffffffffffffffffffffffffff1614610bfa576040517f08c379a0000000000000000000000000000000000000000000000000000000008152600401610bf190612c82565b60405180910390fd5b610c048282611d1e565b5050565b60078181548110610c1857600080fd5b906000526020600020016000915054906101000a900473ffffffffffffffffffffffffffffffffffffffff1681565b610c4f611c36565b73ffffffffffffffffffffffffffffffffffffffff16610c6d61169f565b73ffffffffffffffffffffffffffffffffffffffff1614610cc3576040517f08c379a0000000000000000000000000000000000000000000000000000000008152600401610cba90612a56565b60405180910390fd5b6001600660008373ffffffffffffffffffffffffffffffffffffffff1673ffffffffffffffffffffffffffffffffffffffff16815260200190815260200160002060006101000a81548160ff0219169083151502179055507fa04b8235ba8d4ccc1593bf34f5766d7ead1f24458256decebed920957ed03ec881604051610d4a9190612428565b60405180910390a150565b610d7f7fa49807205ce4d355092ef5a8a18f56e8913cf4a201fbe287825b095693c217753361183e565b610dbe576040517f08c379a0000000000000000000000000000000000000000000000000000000008152600401610db590612cee565b60405180910390fd5b8051825114610e02576040517f08c379a0000000000000000000000000000000000000000000000000000000008152600401610df990612d5a565b60405180910390fd5b60005b8251811015610e6957610e4c838281518110610e2457610e23612d7a565b5b6020026020010151838381518110610e3f57610e3e612d7a565b5b60200260200101516116c8565b610e566004611e00565b8080610e6190612da9565b915050610e05565b507fa14735b76b4f76f1863f1f9cb95f0f76c1d3a65097fbcb969064d6d1bc4369d68282604051610e9b929190612f6d565b60405180910390a15050565b610eaf611c36565b73ffffffffffffffffffffffffffffffffffffffff16610ecd61169f565b73ffffffffffffffffffffffffffffffffffffffff1614610f23576040517f08c379a0000000000000000000000000000000000000000000000000000000008152600401610f1a90612a56565b60405180910390fd5b610fce610f2e61169f565b8273ffffffffffffffffffffffffffffffffffffffff166370a08231306040518263ffffffff1660e01b8152600401610f679190612428565b602060405180830381865afa158015610f84573d6000803e3d6000fd5b505050506040513d601f19601f82011682018060405250810190610fa89190612fa4565b8373ffffffffffffffffffffffffffffffffffffffff16611e169092919063ffffffff16565b50565b6002805403611015576040517f08c379a000000000000000000000000000000000000000000000000000000000815260040161100c9061280b565b60405180910390fd5b6002808190555060056000611028611c36565b73ffffffffffffffffffffffffffffffffffffffff1673ffffffffffffffffffffffffffffffffffffffff16815260200190815260200160002060009054906101000a900460ff166110af576040517f08c379a00000000000000000000000000000000000000000000000000000000081526004016110a69061301d565b60405180910390fd5b60006110ba34610aa2565b90507f000000000000000000000000000000000000000000000000000000000000000073ffffffffffffffffffffffffffffffffffffffff1663a9059cbb611100611c36565b836040518363ffffffff1660e01b815260040161111e9291906129e1565b6020604051808303816000875af115801561113d573d6000803e3d6000fd5b505050506040513d601f19601f8201168201806040525081019061116191906129b4565b507fcff788b65ecc4ee1e06954505390b4d87e536462f29c25f160ab35cdb6ef6aea8160405161119191906123fe565b60405180910390a1506001600281905550565b6111ac611c36565b73ffffffffffffffffffffffffffffffffffffffff166111ca61169f565b73ffffffffffffffffffffffffffffffffffffffff1614611220576040517f08c379a000000000000000000000000000000000000000000000000000000000815260040161121790612a56565b60405180910390fd5b61124a7fa49807205ce4d355092ef5a8a18f56e8913cf4a201fbe287825b095693c2177582611e9c565b50565b611255611c36565b73ffffffffffffffffffffffffffffffffffffffff1661127361169f565b73ffffffffffffffffffffffffffffffffffffffff16146112c9576040517f08c379a00000000000000000000000000000000000000000000000000000000081526004016112c090612a56565b60405180910390fd5b600073ffffffffffffffffffffffffffffffffffffffff1660008054906101000a900473ffffffffffffffffffffffffffffffffffffffff1673ffffffffffffffffffffffffffffffffffffffff167f8be0079c531659141344cd1fd0a4f28419497f9722a3daafe3b4186f6b6457e060405160405180910390a360008060006101000a81548173ffffffffffffffffffffffffffffffffffffffff021916908373ffffffffffffffffffffffffffffffffffffffff160217905550565b7fa49807205ce4d355092ef5a8a18f56e8913cf4a201fbe287825b095693c2177581565b60048060000154905081565b7f000000000000000000000000000000000000000000000000000000000000000081565b60056020528060005260406000206000915054906101000a900460ff1681565b611403611c36565b73ffffffffffffffffffffffffffffffffffffffff1661142161169f565b73ffffffffffffffffffffffffffffffffffffffff1614611477576040517f08c379a000000000000000000000000000000000000000000000000000000000815260040161146e90612a56565b60405180910390fd5b60003373ffffffffffffffffffffffffffffffffffffffff164760405161149d9061306e565b60006040518083038185875af1925050503d80600081146114da576040519150601f19603f3d011682016040523d82523d6000602084013e6114df565b606091505b5050905080611523576040517f08c379a000000000000000000000000000000000000000000000000000000000815260040161151a906130cf565b60405180910390fd5b50565b61152e611c36565b73ffffffffffffffffffffffffffffffffffffffff1661154c61169f565b73ffffffffffffffffffffffffffffffffffffffff16146115a2576040517f08c379a000000000000000000000000000000000000000000000000000000000815260040161159990612a56565b60405180910390fd5b60005b6115af6004611eaa565b811015611665576000600782815481106115cc576115cb612d7a565b5b9060005260206000200160009054906101000a900473ffffffffffffffffffffffffffffffffffffffff1690506000600560008373ffffffffffffffffffffffffffffffffffffffff1673ffffffffffffffffffffffffffffffffffffffff16815260200190815260200160002060006101000a81548160ff02191690831515021790555050808061165d90612da9565b9150506115a5565b5060006004600001819055507fd0cbed51e3869428c249cf1f38201d00e962f0922920ab99b3e6b550f4306bd360405160405180910390a1565b60008060009054906101000a900473ffffffffffffffffffffffffffffffffffffffff16905090565b6116f27fa49807205ce4d355092ef5a8a18f56e8913cf4a201fbe287825b095693c217753361183e565b611731576040517f08c379a000000000000000000000000000000000000000000000000000000000815260040161172890612cee565b60405180910390fd5b600073ffffffffffffffffffffffffffffffffffffffff168273ffffffffffffffffffffffffffffffffffffffff16036117a0576040517f08c379a00000000000000000000000000000000000000000000000000000000081526004016117979061313b565b60405180910390fd5b80600560008473ffffffffffffffffffffffffffffffffffffffff1673ffffffffffffffffffffffffffffffffffffffff16815260200190815260200160002060006101000a81548160ff0219169083151502179055506118016004611e00565b7fc20e3c4439963d0c1b780335b7f62f6ea4863dced8419537339baa550dc963bd828260405161183292919061315b565b60405180910390a15050565b60006001600084815260200190815260200160002060000160008373ffffffffffffffffffffffffffffffffffffffff1673ffffffffffffffffffffffffffffffffffffffff16815260200190815260200160002060009054906101000a900460ff16905092915050565b6118b1611c36565b73ffffffffffffffffffffffffffffffffffffffff166118cf61169f565b73ffffffffffffffffffffffffffffffffffffffff1614611925576040517f08c379a000000000000000000000000000000000000000000000000000000000815260040161191c90612a56565b60405180910390fd5b6000600660008373ffffffffffffffffffffffffffffffffffffffff1673ffffffffffffffffffffffffffffffffffffffff16815260200190815260200160002060006101000a81548160ff0219169083151502179055507fa1b11cdce07f1719c4d0595eaa8c244de7c87fac77b1978af111eb36439ee7e5816040516119ac9190612428565b60405180910390a150565b6000801b81565b6119d76119ca83610953565b6119d2611c36565b61183e565b611a16576040517f08c379a0000000000000000000000000000000000000000000000000000000008152600401611a0d906131f6565b60405180910390fd5b611a208282611d1e565b5050565b611a2c611c36565b73ffffffffffffffffffffffffffffffffffffffff16611a4a61169f565b73ffffffffffffffffffffffffffffffffffffffff1614611aa0576040517f08c379a0000000000000000000000000000000000000000000000000000000008152600401611a9790612a56565b60405180910390fd5b600073ffffffffffffffffffffffffffffffffffffffff168173ffffffffffffffffffffffffffffffffffffffff1603611b0f576040517f08c379a0000000000000000000000000000000000000000000000000000000008152600401611b0690613288565b60405180910390fd5b8073ffffffffffffffffffffffffffffffffffffffff1660008054906101000a900473ffffffffffffffffffffffffffffffffffffffff1673ffffffffffffffffffffffffffffffffffffffff167f8be0079c531659141344cd1fd0a4f28419497f9722a3daafe3b4186f6b6457e060405160405180910390a3806000806101000a81548173ffffffffffffffffffffffffffffffffffffffff021916908373ffffffffffffffffffffffffffffffffffffffff16021790555050565b60007f01ffc9a7000000000000000000000000000000000000000000000000000000007bffffffffffffffffffffffffffffffffffffffffffffffffffffffff1916827bffffffffffffffffffffffffffffffffffffffffffffffffffffffff1916149050919050565b600033905090565b611c48828261183e565b611d1a57600180600084815260200190815260200160002060000160008373ffffffffffffffffffffffffffffffffffffffff1673ffffffffffffffffffffffffffffffffffffffff16815260200190815260200160002060006101000a81548160ff021916908315150217905550611cbf611c36565b73ffffffffffffffffffffffffffffffffffffffff168173ffffffffffffffffffffffffffffffffffffffff16837f2f8788117e7eff1d82e926ec794901d17c78024a50270940304540a733656f0d60405160405180910390a45b5050565b611d28828261183e565b15611dfc5760006001600084815260200190815260200160002060000160008373ffffffffffffffffffffffffffffffffffffffff1673ffffffffffffffffffffffffffffffffffffffff16815260200190815260200160002060006101000a81548160ff021916908315150217905550611da1611c36565b73ffffffffffffffffffffffffffffffffffffffff168173ffffffffffffffffffffffffffffffffffffffff16837ff6391f5c32d9c69d2a47ea670b442974b53935d1edc7fd64eb21e047a839171b60405160405180910390a45b5050565b6001816000016000828254019250508190555050565b611e978363a9059cbb60e01b8484604051602401611e359291906129e1565b604051602081830303815290604052907bffffffffffffffffffffffffffffffffffffffffffffffffffffffff19166020820180517bffffffffffffffffffffffffffffffffffffffffffffffffffffffff8381831617835250505050611eb8565b505050565b611ea68282611c3e565b5050565b600081600001549050919050565b6000611f1a826040518060400160405280602081526020017f5361666545524332303a206c6f772d6c6576656c2063616c6c206661696c65648152508573ffffffffffffffffffffffffffffffffffffffff16611f7f9092919063ffffffff16565b9050600081511115611f7a5780806020019051810190611f3a91906129b4565b611f79576040517f08c379a0000000000000000000000000000000000000000000000000000000008152600401611f709061331a565b60405180910390fd5b5b505050565b6060611f8e8484600085611f97565b90509392505050565b606082471015611fdc576040517f08c379a0000000000000000000000000000000000000000000000000000000008152600401611fd3906133ac565b60405180910390fd5b611fe5856120ab565b612024576040517f08c379a000000000000000000000000000000000000000000000000000000000815260040161201b90613418565b60405180910390fd5b6000808673ffffffffffffffffffffffffffffffffffffffff16858760405161204d919061349e565b60006040518083038185875af1925050503d806000811461208a576040519150601f19603f3d011682016040523d82523d6000602084013e61208f565b606091505b509150915061209f8282866120be565b92505050949350505050565b600080823b905060008111915050919050565b606083156120ce5782905061211e565b6000835111156120e15782518084602001fd5b816040517f08c379a000000000000000000000000000000000000000000000000000000000815260040161211591906134f9565b60405180910390fd5b9392505050565b6000604051905090565b600080fd5b600080fd5b60007fffffffff0000000000000000000000000000000000000000000000000000000082169050919050565b61216e81612139565b811461217957600080fd5b50565b60008135905061218b81612165565b92915050565b6000602082840312156121a7576121a661212f565b5b60006121b58482850161217c565b91505092915050565b60008115159050919050565b6121d3816121be565b82525050565b60006020820190506121ee60008301846121ca565b92915050565b600073ffffffffffffffffffffffffffffffffffffffff82169050919050565b600061221f826121f4565b9050919050565b61222f81612214565b811461223a57600080fd5b50565b60008135905061224c81612226565b92915050565b6000819050919050565b61226581612252565b811461227057600080fd5b50565b6000813590506122828161225c565b92915050565b6000806040838503121561229f5761229e61212f565b5b60006122ad8582860161223d565b92505060206122be85828601612273565b9150509250929050565b6000819050919050565b6122db816122c8565b81146122e657600080fd5b50565b6000813590506122f8816122d2565b92915050565b6000602082840312156123145761231361212f565b5b6000612322848285016122e9565b91505092915050565b612334816122c8565b82525050565b600060208201905061234f600083018461232b565b92915050565b60006020828403121561236b5761236a61212f565b5b60006123798482850161223d565b91505092915050565b600080604083850312156123995761239861212f565b5b60006123a7858286016122e9565b92505060206123b88582860161223d565b9150509250929050565b6000602082840312156123d8576123d761212f565b5b60006123e684828501612273565b91505092915050565b6123f881612252565b82525050565b600060208201905061241360008301846123ef565b92915050565b61242281612214565b82525050565b600060208201905061243d6000830184612419565b92915050565b600080fd5b6000601f19601f8301169050919050565b7f4e487b7100000000000000000000000000000000000000000000000000000000600052604160045260246000fd5b61249182612448565b810181811067ffffffffffffffff821117156124b0576124af612459565b5b80604052505050565b60006124c3612125565b90506124cf8282612488565b919050565b600067ffffffffffffffff8211156124ef576124ee612459565b5b602082029050602081019050919050565b600080fd5b6000612518612513846124d4565b6124b9565b9050808382526020820190506020840283018581111561253b5761253a612500565b5b835b818110156125645780612550888261223d565b84526020840193505060208101905061253d565b5050509392505050565b600082601f83011261258357612582612443565b5b8135612593848260208601612505565b91505092915050565b600067ffffffffffffffff8211156125b7576125b6612459565b5b602082029050602081019050919050565b6125d1816121be565b81146125dc57600080fd5b50565b6000813590506125ee816125c8565b92915050565b60006126076126028461259c565b6124b9565b9050808382526020820190506020840283018581111561262a57612629612500565b5b835b81811015612653578061263f88826125df565b84526020840193505060208101905061262c565b5050509392505050565b600082601f83011261267257612671612443565b5b81356126828482602086016125f4565b91505092915050565b600080604083850312156126a2576126a161212f565b5b600083013567ffffffffffffffff8111156126c0576126bf612134565b5b6126cc8582860161256e565b925050602083013567ffffffffffffffff8111156126ed576126ec612134565b5b6126f98582860161265d565b9150509250929050565b600061270e82612214565b9050919050565b61271e81612703565b811461272957600080fd5b50565b60008135905061273b81612715565b92915050565b6000602082840312156127575761275661212f565b5b60006127658482850161272c565b91505092915050565b600080604083850312156127855761278461212f565b5b60006127938582860161223d565b92505060206127a4858286016125df565b9150509250929050565b600082825260208201905092915050565b7f5265656e7472616e637947756172643a207265656e7472616e742063616c6c00600082015250565b60006127f5601f836127ae565b9150612800826127bf565b602082019050919050565b60006020820190508181036000830152612824816127e8565b9050919050565b7f546f6b656e206e6f7420616c6c6f776564000000000000000000000000000000600082015250565b60006128616011836127ae565b915061286c8261282b565b602082019050919050565b6000602082019050818103600083015261289081612854565b9050919050565b7f4e487b7100000000000000000000000000000000000000000000000000000000600052601160045260246000fd5b60006128d182612252565b91506128dc83612252565b92508282026128ea81612252565b9150828204841483151761290157612900612897565b5b5092915050565b7f4e487b7100000000000000000000000000000000000000000000000000000000600052601260045260246000fd5b600061294282612252565b915061294d83612252565b92508261295d5761295c612908565b5b828204905092915050565b600060608201905061297d6000830186612419565b61298a6020830185612419565b61299760408301846123ef565b949350505050565b6000815190506129ae816125c8565b92915050565b6000602082840312156129ca576129c961212f565b5b60006129d88482850161299f565b91505092915050565b60006040820190506129f66000830185612419565b612a0360208301846123ef565b9392505050565b7f4f776e61626c653a2063616c6c6572206973206e6f7420746865206f776e6572600082015250565b6000612a406020836127ae565b9150612a4b82612a0a565b602082019050919050565b60006020820190508181036000830152612a6f81612a33565b9050919050565b7f416363657373436f6e74726f6c3a2073656e646572206d75737420626520616e60008201527f2061646d696e20746f206772616e740000000000000000000000000000000000602082015250565b6000612ad2602f836127ae565b9150612add82612a76565b604082019050919050565b60006020820190508181036000830152612b0181612ac5565b9050919050565b600069ffffffffffffffffffff82169050919050565b612b2781612b08565b8114612b3257600080fd5b50565b600081519050612b4481612b1e565b92915050565b6000819050919050565b612b5d81612b4a565b8114612b6857600080fd5b50565b600081519050612b7a81612b54565b92915050565b600081519050612b8f8161225c565b92915050565b600080600080600060a08688031215612bb157612bb061212f565b5b6000612bbf88828901612b35565b9550506020612bd088828901612b6b565b9450506040612be188828901612b80565b9350506060612bf288828901612b80565b9250506080612c0388828901612b35565b9150509295509295909350565b7f416363657373436f6e74726f6c3a2063616e206f6e6c792072656e6f756e636560008201527f20726f6c657320666f722073656c660000000000000000000000000000000000602082015250565b6000612c6c602f836127ae565b9150612c7782612c10565b604082019050919050565b60006020820190508181036000830152612c9b81612c5f565b9050919050565b7f43616c6c6572206973206e6f7420612061646d696e0000000000000000000000600082015250565b6000612cd86015836127ae565b9150612ce382612ca2565b602082019050919050565b60006020820190508181036000830152612d0781612ccb565b9050919050565b7f4c656e677468206d69736d617463682100000000000000000000000000000000600082015250565b6000612d446010836127ae565b9150612d4f82612d0e565b602082019050919050565b60006020820190508181036000830152612d7381612d37565b9050919050565b7f4e487b7100000000000000000000000000000000000000000000000000000000600052603260045260246000fd5b6000612db482612252565b91507fffffffffffffffffffffffffffffffffffffffffffffffffffffffffffffffff8203612de657612de5612897565b5b600182019050919050565b600081519050919050565b600082825260208201905092915050565b6000819050602082019050919050565b612e2681612214565b82525050565b6000612e388383612e1d565b60208301905092915050565b6000602082019050919050565b6000612e5c82612df1565b612e668185612dfc565b9350612e7183612e0d565b8060005b83811015612ea2578151612e898882612e2c565b9750612e9483612e44565b925050600181019050612e75565b5085935050505092915050565b600081519050919050565b600082825260208201905092915050565b6000819050602082019050919050565b612ee4816121be565b82525050565b6000612ef68383612edb565b60208301905092915050565b6000602082019050919050565b6000612f1a82612eaf565b612f248185612eba565b9350612f2f83612ecb565b8060005b83811015612f60578151612f478882612eea565b9750612f5283612f02565b925050600181019050612f33565b5085935050505092915050565b60006040820190508181036000830152612f878185612e51565b90508181036020830152612f9b8184612f0f565b90509392505050565b600060208284031215612fba57612fb961212f565b5b6000612fc884828501612b80565b91505092915050565b7f43616c6c6572206973206e6f7420696e20476f6c64206c697374000000000000600082015250565b6000613007601a836127ae565b915061301282612fd1565b602082019050919050565b6000602082019050818103600083015261303681612ffa565b9050919050565b600081905092915050565b50565b600061305860008361303d565b915061306382613048565b600082019050919050565b60006130798261304b565b9150819050919050565b7f5769746864726177616c206661696c65642e0000000000000000000000000000600082015250565b60006130b96012836127ae565b91506130c482613083565b602082019050919050565b600060208201905081810360008301526130e8816130ac565b9050919050565b7f43616e2774206164642030206164647265737300000000000000000000000000600082015250565b60006131256013836127ae565b9150613130826130ef565b602082019050919050565b6000602082019050818103600083015261315481613118565b9050919050565b60006040820190506131706000830185612419565b61317d60208301846121ca565b9392505050565b7f416363657373436f6e74726f6c3a2073656e646572206d75737420626520616e60008201527f2061646d696e20746f207265766f6b6500000000000000000000000000000000602082015250565b60006131e06030836127ae565b91506131eb82613184565b604082019050919050565b6000602082019050818103600083015261320f816131d3565b9050919050565b7f4f776e61626c653a206e6577206f776e657220697320746865207a65726f206160008201527f6464726573730000000000000000000000000000000000000000000000000000602082015250565b60006132726026836127ae565b915061327d82613216565b604082019050919050565b600060208201905081810360008301526132a181613265565b9050919050565b7f5361666545524332303a204552433230206f7065726174696f6e20646964206e60008201527f6f74207375636365656400000000000000000000000000000000000000000000602082015250565b6000613304602a836127ae565b915061330f826132a8565b604082019050919050565b60006020820190508181036000830152613333816132f7565b9050919050565b7f416464726573733a20696e73756666696369656e742062616c616e636520666f60008201527f722063616c6c0000000000000000000000000000000000000000000000000000602082015250565b60006133966026836127ae565b91506133a18261333a565b604082019050919050565b600060208201905081810360008301526133c581613389565b9050919050565b7f416464726573733a2063616c6c20746f206e6f6e2d636f6e7472616374000000600082015250565b6000613402601d836127ae565b915061340d826133cc565b602082019050919050565b60006020820190508181036000830152613431816133f5565b9050919050565b600081519050919050565b60005b83811015613461578082015181840152602081019050613446565b60008484015250505050565b600061347882613438565b613482818561303d565b9350613492818560208601613443565b80840191505092915050565b60006134aa828461346d565b915081905092915050565b600081519050919050565b60006134cb826134b5565b6134d581856127ae565b93506134e5818560208601613443565b6134ee81612448565b840191505092915050565b6000602082019050818103600083015261351381846134c0565b90509291505056fea2646970667358221220e006d03978342a90bfdf4de4c330d233e0684ca75cd73d3e274ce838432322ad64736f6c63430008110033",
  "linkReferences": {},
  "deployedLinkReferences": {}
}